{
  "contractName": "Inventory",
  "abi": [
    {
      "inputs": [],
      "stateMutability": "nonpayable",
      "type": "constructor"
    },
    {
      "inputs": [],
      "name": "owner",
      "outputs": [
        {
          "internalType": "address",
          "name": "",
          "type": "address"
        }
      ],
      "stateMutability": "view",
      "type": "function"
    },
    {
      "inputs": [],
      "name": "stock",
      "outputs": [
        {
          "internalType": "uint256",
          "name": "",
          "type": "uint256"
        }
      ],
      "stateMutability": "view",
      "type": "function"
    },
    {
      "inputs": [],
      "name": "getStock",
      "outputs": [
        {
          "internalType": "uint256",
          "name": "",
          "type": "uint256"
        }
      ],
      "stateMutability": "view",
      "type": "function"
    },
    {
      "inputs": [
        {
          "internalType": "uint256",
          "name": "amount",
          "type": "uint256"
        }
      ],
      "name": "increaseStock",
      "outputs": [],
      "stateMutability": "nonpayable",
      "type": "function"
    },
    {
      "inputs": [
        {
          "internalType": "uint256",
          "name": "amount",
          "type": "uint256"
        }
      ],
      "name": "buyStock",
      "outputs": [],
      "stateMutability": "payable",
      "type": "function"
    }
  ],
  "bytecode": "0x60806040526000805534801561001457600080fd5b5033600160006101000a81548173ffffffffffffffffffffffffffffffffffffffff021916908373ffffffffffffffffffffffffffffffffffffffff16021790555061068b806100656000396000f3fe60806040526004361061004a5760003560e01c8063148f2a9c1461004f5780637d79846e1461006b5780638da5cb5b14610094578063bdf3c4ae146100bf578063e38ffcd8146100ea575b600080fd5b6100696004803603810190610064919061034e565b610115565b005b34801561007757600080fd5b50610092600480360381019061008d919061034e565b610233565b005b3480156100a057600080fd5b506100a96102de565b6040516100b691906103bc565b60405180910390f35b3480156100cb57600080fd5b506100d4610304565b6040516100e191906103e6565b60405180910390f35b3480156100f657600080fd5b506100ff61030a565b60405161010c91906103e6565b60405180910390f35b670de0b6b3a7640000816101299190610430565b341461016a576040517f08c379a0000000000000000000000000000000000000000000000000000000008152600401610161906104cf565b60405180910390fd5b8060005410156101af576040517f08c379a00000000000000000000000000000000000000000000000000000000081526004016101a69061053b565b60405180910390fd5b806000808282546101c0919061055b565b92505081905550600160009054906101000a900473ffffffffffffffffffffffffffffffffffffffff1673ffffffffffffffffffffffffffffffffffffffff166108fc349081150290604051600060405180830381858888f1935050505015801561022f573d6000803e3d6000fd5b5050565b600160009054906101000a900473ffffffffffffffffffffffffffffffffffffffff1673ffffffffffffffffffffffffffffffffffffffff163373ffffffffffffffffffffffffffffffffffffffff16146102c3576040517f08c379a00000000000000000000000000000000000000000000000000000000081526004016102ba90610601565b60405180910390fd5b806000808282546102d49190610621565b9250508190555050565b600160009054906101000a900473ffffffffffffffffffffffffffffffffffffffff1681565b60005481565b60008054905090565b600080fd5b6000819050919050565b61032b81610318565b811461033657600080fd5b50565b60008135905061034881610322565b92915050565b60006020828403121561036457610363610313565b5b600061037284828501610339565b91505092915050565b600073ffffffffffffffffffffffffffffffffffffffff82169050919050565b60006103a68261037b565b9050919050565b6103b68161039b565b82525050565b60006020820190506103d160008301846103ad565b92915050565b6103e081610318565b82525050565b60006020820190506103fb60008301846103d7565b92915050565b7f4e487b7100000000000000000000000000000000000000000000000000000000600052601160045260246000fd5b600061043b82610318565b915061044683610318565b925082820261045481610318565b9150828204841483151761046b5761046a610401565b5b5092915050565b600082825260208201905092915050565b7f496e636f7272656374207061796d656e7420616d6f756e740000000000000000600082015250565b60006104b9601883610472565b91506104c482610483565b602082019050919050565b600060208201905081810360008301526104e8816104ac565b9050919050565b7f496e73756666696369656e742073746f636b0000000000000000000000000000600082015250565b6000610525601283610472565b9150610530826104ef565b602082019050919050565b6000602082019050818103600083015261055481610518565b9050919050565b600061056682610318565b915061057183610318565b925082820390508181111561058957610588610401565b5b92915050565b7f4f6e6c79206f776e65722063616e2063616c6c20746869732066756e6374696f60008201527f6e00000000000000000000000000000000000000000000000000000000000000602082015250565b60006105eb602183610472565b91506105f68261058f565b604082019050919050565b6000602082019050818103600083015261061a816105de565b9050919050565b600061062c82610318565b915061063783610318565b925082820190508082111561064f5761064e610401565b5b9291505056fea2646970667358221220c0d810f8b47030673a5d5eeec3b831702b5582df54a5de1caf856dc578c74cf164736f6c63430008130033",
  "immutableReferences": {},
  "source": "// SPDX-License-Identifier: MIT\r\npragma solidity ^0.8.11;\r\n\r\ncontract Inventory {\r\n    uint256 public stock = 0;\r\n    address public owner;\r\n\r\n    constructor() {\r\n        owner = msg.sender;\r\n    }\r\n\r\n    function getStock() public view returns (uint256) {\r\n        return stock;\r\n    }\r\n\r\n    function increaseStock(uint256 amount) public onlyOwner {\r\n        stock += amount;\r\n    }\r\n\r\n    function buyStock(uint256 amount) public payable {\r\n        require(msg.value == amount * 1 ether, \"Incorrect payment amount\");\r\n\r\n        require(stock >= amount, \"Insufficient stock\");\r\n        stock -= amount;\r\n\r\n        payable(owner).transfer(msg.value);\r\n    }\r\n\r\n    modifier onlyOwner {\r\n        require(msg.sender == owner, \"Only owner can call this function\");\r\n        _;\r\n    }\r\n}\r\n",
  "sourcePath": "Z:\\PSU\\CMPSC 297\\Final Project\\test-final-project\\mc-property-marketplace\\contracts\\MCPropertyMarketplace.sol",
  "compiler": {
    "name": "solc",
    "version": "0.8.19+commit.7dd6d404.Emscripten.clang"
  },
  "schemaVersion": "3.4.13",
  "updatedAt": "2023-04-30T01:53:36.538Z",
  "devdoc": {
    "kind": "dev",
    "methods": {},
    "version": 1
  },
  "userdoc": {
    "kind": "user",
    "methods": {},
    "version": 1
  }
}