{
  "contractName": "MCPropertyMarketplace",
  "abi": [
    {
      "inputs": [],
      "stateMutability": "nonpayable",
      "type": "constructor"
    },
    {
      "anonymous": false,
      "inputs": [
        {
          "indexed": true,
          "internalType": "uint256",
          "name": "id",
          "type": "uint256"
        },
        {
          "indexed": false,
          "internalType": "string",
          "name": "name",
          "type": "string"
        },
        {
          "indexed": false,
          "internalType": "string",
          "name": "itemType",
          "type": "string"
        },
        {
          "indexed": false,
          "internalType": "string",
          "name": "description",
          "type": "string"
        },
        {
          "indexed": false,
          "internalType": "address",
          "name": "seller",
          "type": "address"
        },
        {
          "indexed": false,
          "internalType": "uint256",
          "name": "price",
          "type": "uint256"
        },
        {
          "indexed": false,
          "internalType": "bool",
          "name": "isOnSale",
          "type": "bool"
        }
      ],
      "name": "ItemAdded",
      "type": "event"
    },
    {
      "anonymous": false,
      "inputs": [
        {
          "indexed": true,
          "internalType": "uint256",
          "name": "id",
          "type": "uint256"
        },
        {
          "indexed": false,
          "internalType": "address",
          "name": "seller",
          "type": "address"
        },
        {
          "indexed": false,
          "internalType": "address",
          "name": "buyer",
          "type": "address"
        }
      ],
      "name": "ItemPurchased",
      "type": "event"
    },
    {
      "anonymous": false,
      "inputs": [
        {
          "indexed": true,
          "internalType": "uint256",
          "name": "id",
          "type": "uint256"
        },
        {
          "indexed": false,
          "internalType": "address",
          "name": "seller",
          "type": "address"
        }
      ],
      "name": "ItemPutOnSale",
      "type": "event"
    },
    {
      "anonymous": false,
      "inputs": [
        {
          "indexed": true,
          "internalType": "uint256",
          "name": "id",
          "type": "uint256"
        },
        {
          "indexed": false,
          "internalType": "address",
          "name": "seller",
          "type": "address"
        }
      ],
      "name": "ItemRemoved",
      "type": "event"
    },
    {
      "anonymous": false,
      "inputs": [
        {
          "indexed": true,
          "internalType": "uint256",
          "name": "id",
          "type": "uint256"
        },
        {
          "indexed": false,
          "internalType": "address",
          "name": "seller",
          "type": "address"
        }
      ],
      "name": "ItemTakenOffSale",
      "type": "event"
    },
    {
      "anonymous": false,
      "inputs": [
        {
          "indexed": false,
          "internalType": "uint256",
          "name": "value",
          "type": "uint256"
        },
        {
          "indexed": false,
          "internalType": "address",
          "name": "receiver",
          "type": "address"
        },
        {
          "indexed": false,
          "internalType": "address",
          "name": "sender",
          "type": "address"
        }
      ],
      "name": "paid",
      "type": "event"
    },
    {
      "anonymous": false,
      "inputs": [
        {
          "indexed": false,
          "internalType": "uint256",
          "name": "toyNum",
          "type": "uint256"
        }
      ],
      "name": "toyAmountAdded",
      "type": "event"
    },
    {
      "inputs": [
        {
          "internalType": "address",
          "name": "",
          "type": "address"
        },
        {
          "internalType": "uint256",
          "name": "",
          "type": "uint256"
        }
      ],
      "name": "buyerItems",
      "outputs": [
        {
          "internalType": "bool",
          "name": "",
          "type": "bool"
        }
      ],
      "stateMutability": "view",
      "type": "function",
      "constant": true
    },
    {
      "inputs": [
        {
          "internalType": "uint256",
          "name": "",
          "type": "uint256"
        }
      ],
      "name": "items",
      "outputs": [
        {
          "internalType": "uint256",
          "name": "id",
          "type": "uint256"
        },
        {
          "internalType": "string",
          "name": "name",
          "type": "string"
        },
        {
          "internalType": "string",
          "name": "itemType",
          "type": "string"
        },
        {
          "internalType": "string",
          "name": "description",
          "type": "string"
        },
        {
          "internalType": "address",
          "name": "seller",
          "type": "address"
        },
        {
          "internalType": "uint256",
          "name": "price",
          "type": "uint256"
        },
        {
          "internalType": "bool",
          "name": "isOnSale",
          "type": "bool"
        }
      ],
      "stateMutability": "view",
      "type": "function",
      "constant": true
    },
    {
      "inputs": [],
      "name": "nextItemId",
      "outputs": [
        {
          "internalType": "uint256",
          "name": "",
          "type": "uint256"
        }
      ],
      "stateMutability": "view",
      "type": "function",
      "constant": true
    },
    {
      "inputs": [],
      "name": "owner",
      "outputs": [
        {
          "internalType": "address",
          "name": "",
          "type": "address"
        }
      ],
      "stateMutability": "view",
      "type": "function",
      "constant": true
    },
    {
      "inputs": [
        {
          "internalType": "address",
          "name": "",
          "type": "address"
        },
        {
          "internalType": "uint256",
          "name": "",
          "type": "uint256"
        }
      ],
      "name": "sellerItems",
      "outputs": [
        {
          "internalType": "bool",
          "name": "",
          "type": "bool"
        }
      ],
      "stateMutability": "view",
      "type": "function",
      "constant": true
    },
    {
      "inputs": [],
      "name": "toyNumber",
      "outputs": [
        {
          "internalType": "uint256",
          "name": "",
          "type": "uint256"
        }
      ],
      "stateMutability": "view",
      "type": "function",
      "constant": true
    },
    {
      "inputs": [
        {
          "internalType": "uint256",
          "name": "amount",
          "type": "uint256"
        }
      ],
      "name": "addToyAmount",
      "outputs": [
        {
          "internalType": "uint256",
          "name": "",
          "type": "uint256"
        }
      ],
      "stateMutability": "nonpayable",
      "type": "function"
    },
    {
      "inputs": [],
      "name": "getSender",
      "outputs": [
        {
          "internalType": "address",
          "name": "",
          "type": "address"
        }
      ],
      "stateMutability": "view",
      "type": "function",
      "constant": true
    },
    {
      "inputs": [],
      "name": "getOwner",
      "outputs": [
        {
          "internalType": "address",
          "name": "",
          "type": "address"
        }
      ],
      "stateMutability": "view",
      "type": "function",
      "constant": true
    },
    {
      "inputs": [],
      "name": "getNextItemId",
      "outputs": [
        {
          "internalType": "uint256",
          "name": "",
          "type": "uint256"
        }
      ],
      "stateMutability": "view",
      "type": "function",
      "constant": true
    },
    {
      "inputs": [],
      "name": "payToOwner",
      "outputs": [],
      "stateMutability": "payable",
      "type": "function",
      "payable": true
    },
    {
      "inputs": [
        {
          "internalType": "string",
          "name": "_name",
          "type": "string"
        },
        {
          "internalType": "string",
          "name": "_itemType",
          "type": "string"
        },
        {
          "internalType": "string",
          "name": "_description",
          "type": "string"
        },
        {
          "internalType": "uint256",
          "name": "_price",
          "type": "uint256"
        }
      ],
      "name": "addItem",
      "outputs": [
        {
          "internalType": "uint256",
          "name": "",
          "type": "uint256"
        }
      ],
      "stateMutability": "nonpayable",
      "type": "function"
    },
    {
      "inputs": [
        {
          "internalType": "uint256",
          "name": "_itemId",
          "type": "uint256"
        }
      ],
      "name": "putItemOnSale",
      "outputs": [],
      "stateMutability": "nonpayable",
      "type": "function"
    },
    {
      "inputs": [
        {
          "internalType": "uint256",
          "name": "_itemId",
          "type": "uint256"
        }
      ],
      "name": "takeItemOffSale",
      "outputs": [],
      "stateMutability": "nonpayable",
      "type": "function"
    },
    {
      "inputs": [
        {
          "internalType": "uint256",
          "name": "_itemId",
          "type": "uint256"
        }
      ],
      "name": "buyItem",
      "outputs": [],
      "stateMutability": "payable",
      "type": "function",
      "payable": true
    },
    {
      "inputs": [
        {
          "internalType": "uint256",
          "name": "itemId",
          "type": "uint256"
        }
      ],
      "name": "getItemById",
      "outputs": [
        {
          "internalType": "string",
          "name": "name",
          "type": "string"
        },
        {
          "internalType": "string",
          "name": "itemType",
          "type": "string"
        },
        {
          "internalType": "string",
          "name": "description",
          "type": "string"
        },
        {
          "internalType": "address",
          "name": "seller",
          "type": "address"
        },
        {
          "internalType": "uint256",
          "name": "price",
          "type": "uint256"
        },
        {
          "internalType": "bool",
          "name": "isOnSale",
          "type": "bool"
        }
      ],
      "stateMutability": "view",
      "type": "function",
      "constant": true
    },
    {
      "inputs": [],
      "name": "getAllOnSaleItems",
      "outputs": [
        {
          "internalType": "uint256[]",
          "name": "",
          "type": "uint256[]"
        }
      ],
      "stateMutability": "view",
      "type": "function",
      "constant": true
    },
    {
      "inputs": [
        {
          "internalType": "address",
          "name": "_seller",
          "type": "address"
        }
      ],
      "name": "getSellerItems",
      "outputs": [
        {
          "internalType": "uint256[]",
          "name": "",
          "type": "uint256[]"
        }
      ],
      "stateMutability": "view",
      "type": "function",
      "constant": true
    },
    {
      "inputs": [
        {
          "internalType": "address",
          "name": "_buyer",
          "type": "address"
        }
      ],
      "name": "getBuyerItems",
      "outputs": [
        {
          "internalType": "uint256[]",
          "name": "",
          "type": "uint256[]"
        }
      ],
      "stateMutability": "view",
      "type": "function",
      "constant": true
    },
    {
      "inputs": [
        {
          "internalType": "address",
          "name": "_owner",
          "type": "address"
        }
      ],
      "name": "getInventory",
      "outputs": [
        {
          "internalType": "uint256[]",
          "name": "",
          "type": "uint256[]"
        }
      ],
      "stateMutability": "view",
      "type": "function",
      "constant": true
    }
  ],
  "bytecode": "0x608060405260018055600060025534801561001957600080fd5b50336000806101000a81548173ffffffffffffffffffffffffffffffffffffffff021916908373ffffffffffffffffffffffffffffffffffffffff160217905550612c8d806100696000396000f3fe60806040526004361061011f5760003560e01c806377b43c08116100a0578063a25e402f11610064578063a25e402f14610411578063bfb231d21461041b578063cd2f07101461045e578063d3cbb62b146104a0578063e7fb74c7146104dd5761011f565b806377b43c081461032a5780637ce1f78714610355578063893d20e81461037e5780638b87c544146103a95780638da5cb5b146103e65761011f565b80635e01eb5a116100e75780635e01eb5a146102435780636265db2f1461026e578063676cdb24146102ab5780636a868974146102d6578063736ec5ef146103015761011f565b806308fff3e81461012457806316a5f9b31461016157806323a4a84d1461019e5780632c02338f146101db5780632f40a0d014610218575b600080fd5b34801561013057600080fd5b5061014b60048036038101906101469190611f8a565b6104f9565b6040516101589190611fe5565b60405180910390f35b34801561016d57600080fd5b5061018860048036038101906101839190612000565b610528565b604051610195919061203c565b60405180910390f35b3480156101aa57600080fd5b506101c560048036038101906101c09190612057565b610597565b6040516101d29190612142565b60405180910390f35b3480156101e757600080fd5b5061020260048036038101906101fd9190611f8a565b610759565b60405161020f9190611fe5565b60405180910390f35b34801561022457600080fd5b5061022d610788565b60405161023a9190612142565b60405180910390f35b34801561024f57600080fd5b50610258610927565b6040516102659190612173565b60405180910390f35b34801561027a57600080fd5b50610295600480360381019061029091906122d4565b61092f565b6040516102a2919061203c565b60405180910390f35b3480156102b757600080fd5b506102c0610b45565b6040516102cd919061203c565b60405180910390f35b3480156102e257600080fd5b506102eb610b4b565b6040516102f8919061203c565b60405180910390f35b34801561030d57600080fd5b5061032860048036038101906103239190612000565b610b51565b005b34801561033657600080fd5b5061033f610d20565b60405161034c919061203c565b60405180910390f35b34801561036157600080fd5b5061037c60048036038101906103779190612000565b610d2a565b005b34801561038a57600080fd5b50610393610efa565b6040516103a09190612173565b60405180910390f35b3480156103b557600080fd5b506103d060048036038101906103cb9190612057565b610f23565b6040516103dd9190612142565b60405180910390f35b3480156103f257600080fd5b506103fb61126a565b6040516104089190612173565b60405180910390f35b61041961128e565b005b34801561042757600080fd5b50610442600480360381019061043d9190612000565b611396565b604051610455979695949392919061240e565b60405180910390f35b34801561046a57600080fd5b5061048560048036038101906104809190612000565b61159d565b60405161049796959493929190612492565b60405180910390f35b3480156104ac57600080fd5b506104c760048036038101906104c29190612057565b611804565b6040516104d49190612142565b60405180910390f35b6104f760048036038101906104f29190612000565b6119d2565b005b60056020528160005260406000206020528060005260406000206000915091509054906101000a900460ff1681565b60008082101561053b5761053a612508565b5b816002600082825461054d9190612566565b925050819055507fa5f5299a07a5e6f02a0c48fd6fe9f30e0f5d8e82375fe507ce2e21394f8da608600254604051610585919061203c565b60405180910390a16002549050919050565b6060600080600190505b60015481101561063057600560008573ffffffffffffffffffffffffffffffffffffffff1673ffffffffffffffffffffffffffffffffffffffff168152602001908152602001600020600082815260200190815260200160002060009054906101000a900460ff161561061d5781806106199061259a565b9250505b80806106289061259a565b9150506105a1565b5060008167ffffffffffffffff81111561064d5761064c6121a9565b5b60405190808252806020026020018201604052801561067b5781602001602082028036833780820191505090505b509050600091506000600190505b60015481101561074e57600560008673ffffffffffffffffffffffffffffffffffffffff1673ffffffffffffffffffffffffffffffffffffffff168152602001908152602001600020600082815260200190815260200160002060009054906101000a900460ff161561073b5760036000828152602001908152602001600020600001548284815181106107205761071f6125e2565b5b60200260200101818152505082806107379061259a565b9350505b80806107469061259a565b915050610689565b508092505050919050565b60046020528160005260406000206020528060005260406000206000915091509054906101000a900460ff1681565b606060006001805461079a9190612611565b67ffffffffffffffff8111156107b3576107b26121a9565b5b6040519080825280602002602001820160405280156107e15781602001602082028036833780820191505090505b509050600080600190505b600154811015610877576003600082815260200190815260200160002060060160009054906101000a900460ff1615610864576003600082815260200190815260200160002060000154838381518110610849576108486125e2565b5b60200260200101818152505081806108609061259a565b9250505b808061086f9061259a565b9150506107ec565b5060008167ffffffffffffffff811115610894576108936121a9565b5b6040519080825280602002602001820160405280156108c25781602001602082028036833780820191505090505b50905060005b8281101561091d578381815181106108e3576108e26125e2565b5b60200260200101518282815181106108fe576108fd6125e2565b5b60200260200101818152505080806109159061259a565b9150506108c8565b5080935050505090565b600033905090565b60008082101561094257610941612508565b5b6040518060e0016040528060015481526020018681526020018581526020018481526020013373ffffffffffffffffffffffffffffffffffffffff168152602001838152602001600015158152506003600060015481526020019081526020016000206000820151816000015560208201518160010190816109c49190612851565b5060408201518160020190816109da9190612851565b5060608201518160030190816109f09190612851565b5060808201518160040160006101000a81548173ffffffffffffffffffffffffffffffffffffffff021916908373ffffffffffffffffffffffffffffffffffffffff16021790555060a0820151816005015560c08201518160060160006101000a81548160ff0219169083151502179055509050506001600460003373ffffffffffffffffffffffffffffffffffffffff1673ffffffffffffffffffffffffffffffffffffffff1681526020019081526020016000206000600154815260200190815260200160002060006101000a81548160ff02191690831515021790555060016000815480929190610ae39061259a565b919050555060018054610af69190612611565b7f0b300598ee654400165c6fa06071d42484c3b6922830887fb6e1c5cf5345ff2f86868633876000604051610b3096959493929190612492565b60405180910390a26001549050949350505050565b60025481565b60015481565b600460003373ffffffffffffffffffffffffffffffffffffffff1673ffffffffffffffffffffffffffffffffffffffff168152602001908152602001600020600082815260200190815260200160002060009054906101000a900460ff1680610c145750600560003373ffffffffffffffffffffffffffffffffffffffff1673ffffffffffffffffffffffffffffffffffffffff168152602001908152602001600020600082815260200190815260200160002060009054906101000a900460ff165b610c53576040517f08c379a0000000000000000000000000000000000000000000000000000000008152600401610c4a90612995565b60405180910390fd5b6003600082815260200190815260200160002060060160009054906101000a900460ff16610cb6576040517f08c379a0000000000000000000000000000000000000000000000000000000008152600401610cad90612a01565b60405180910390fd5b60006003600083815260200190815260200160002060060160006101000a81548160ff021916908315150217905550807f62b1c208d6465529804a43ee36591914bc4106a6f2b718fbe86b27a8999d3ea733604051610d159190612173565b60405180910390a250565b6000600154905090565b600460003373ffffffffffffffffffffffffffffffffffffffff1673ffffffffffffffffffffffffffffffffffffffff168152602001908152602001600020600082815260200190815260200160002060009054906101000a900460ff1680610ded5750600560003373ffffffffffffffffffffffffffffffffffffffff1673ffffffffffffffffffffffffffffffffffffffff168152602001908152602001600020600082815260200190815260200160002060009054906101000a900460ff165b610e2c576040517f08c379a0000000000000000000000000000000000000000000000000000000008152600401610e2390612a93565b60405180910390fd5b6003600082815260200190815260200160002060060160009054906101000a900460ff1615610e90576040517f08c379a0000000000000000000000000000000000000000000000000000000008152600401610e8790612aff565b60405180910390fd5b60016003600083815260200190815260200160002060060160006101000a81548160ff021916908315150217905550807fbb0251a7f56baa8b78c23aa823745ce82bd0ea2ea2070367dd51401b407692ad33604051610eef9190612173565b60405180910390a250565b60008060009054906101000a900473ffffffffffffffffffffffffffffffffffffffff16905090565b6060600080600080600190505b600154811015610fcd57600460008773ffffffffffffffffffffffffffffffffffffffff1673ffffffffffffffffffffffffffffffffffffffff168152602001908152602001600020600082815260200190815260200160002060009054906101000a900460ff1615610fba578380610fa89061259a565b9450508180610fb69061259a565b9250505b8080610fc59061259a565b915050610f30565b506000600190505b60015481101561107257600560008773ffffffffffffffffffffffffffffffffffffffff1673ffffffffffffffffffffffffffffffffffffffff168152602001908152602001600020600082815260200190815260200160002060009054906101000a900460ff161561105f57828061104d9061259a565b935050818061105b9061259a565b9250505b808061106a9061259a565b915050610fd5565b5060008167ffffffffffffffff81111561108f5761108e6121a9565b5b6040519080825280602002602001820160405280156110bd5781602001602082028036833780820191505090505b509050600091506000600190505b60015481101561119057600460008873ffffffffffffffffffffffffffffffffffffffff1673ffffffffffffffffffffffffffffffffffffffff168152602001908152602001600020600082815260200190815260200160002060009054906101000a900460ff161561117d576003600082815260200190815260200160002060000154828481518110611162576111616125e2565b5b60200260200101818152505082806111799061259a565b9350505b80806111889061259a565b9150506110cb565b506000600190505b60015481101561125d57600560008873ffffffffffffffffffffffffffffffffffffffff1673ffffffffffffffffffffffffffffffffffffffff168152602001908152602001600020600082815260200190815260200160002060009054906101000a900460ff161561124a57600360008281526020019081526020016000206000015482848151811061122f5761122e6125e2565b5b60200260200101818152505082806112469061259a565b9350505b80806112559061259a565b915050611198565b5080945050505050919050565b60008054906101000a900473ffffffffffffffffffffffffffffffffffffffff1681565b60003410156112d2576040517f08c379a00000000000000000000000000000000000000000000000000000000081526004016112c990612b6b565b60405180910390fd5b60008054906101000a900473ffffffffffffffffffffffffffffffffffffffff1673ffffffffffffffffffffffffffffffffffffffff166108fc349081150290604051600060405180830381858888f19350505050158015611338573d6000803e3d6000fd5b507f15474600d051f69368a1fd268547bda2ef872ed70b6b9c356bc140d3d1bbe8123460008054906101000a900473ffffffffffffffffffffffffffffffffffffffff163360405161138c93929190612b8b565b60405180910390a1565b60036020528060005260406000206000915090508060000154908060010180546113bf90612674565b80601f01602080910402602001604051908101604052809291908181526020018280546113eb90612674565b80156114385780601f1061140d57610100808354040283529160200191611438565b820191906000526020600020905b81548152906001019060200180831161141b57829003601f168201915b50505050509080600201805461144d90612674565b80601f016020809104026020016040519081016040528092919081815260200182805461147990612674565b80156114c65780601f1061149b576101008083540402835291602001916114c6565b820191906000526020600020905b8154815290600101906020018083116114a957829003601f168201915b5050505050908060030180546114db90612674565b80601f016020809104026020016040519081016040528092919081815260200182805461150790612674565b80156115545780601f1061152957610100808354040283529160200191611554565b820191906000526020600020905b81548152906001019060200180831161153757829003601f168201915b5050505050908060040160009054906101000a900473ffffffffffffffffffffffffffffffffffffffff16908060050154908060060160009054906101000a900460ff16905087565b6060806060600080600060015487106115eb576040517f08c379a00000000000000000000000000000000000000000000000000000000081526004016115e290612c0e565b60405180910390fd5b60006003600089815260200190815260200160002090508060010181600201826003018360040160009054906101000a900473ffffffffffffffffffffffffffffffffffffffff1684600501548560060160009054906101000a900460ff1685805461165690612674565b80601f016020809104026020016040519081016040528092919081815260200182805461168290612674565b80156116cf5780601f106116a4576101008083540402835291602001916116cf565b820191906000526020600020905b8154815290600101906020018083116116b257829003601f168201915b505050505095508480546116e290612674565b80601f016020809104026020016040519081016040528092919081815260200182805461170e90612674565b801561175b5780601f106117305761010080835404028352916020019161175b565b820191906000526020600020905b81548152906001019060200180831161173e57829003601f168201915b5050505050945083805461176e90612674565b80601f016020809104026020016040519081016040528092919081815260200182805461179a90612674565b80156117e75780601f106117bc576101008083540402835291602001916117e7565b820191906000526020600020905b8154815290600101906020018083116117ca57829003601f168201915b505050505093509650965096509650965096505091939550919395565b6060600080600190505b6001548110156118a3578373ffffffffffffffffffffffffffffffffffffffff166003600083815260200190815260200160002060040160009054906101000a900473ffffffffffffffffffffffffffffffffffffffff1673ffffffffffffffffffffffffffffffffffffffff160361189057818061188c9061259a565b9250505b808061189b9061259a565b91505061180e565b5060008167ffffffffffffffff8111156118c0576118bf6121a9565b5b6040519080825280602002602001820160405280156118ee5781602001602082028036833780820191505090505b509050600091506000600190505b6001548110156119c7578473ffffffffffffffffffffffffffffffffffffffff166003600083815260200190815260200160002060040160009054906101000a900473ffffffffffffffffffffffffffffffffffffffff1673ffffffffffffffffffffffffffffffffffffffff16036119b4576003600082815260200190815260200160002060000154828481518110611999576119986125e2565b5b60200260200101818152505082806119b09061259a565b9350505b80806119bf9061259a565b9150506118fc565b508092505050919050565b6003600082815260200190815260200160002060060160009054906101000a900460ff16611a35576040517f08c379a0000000000000000000000000000000000000000000000000000000008152600401611a2c90612a01565b60405180910390fd5b6003600082815260200190815260200160002060050154341015611a8e576040517f08c379a0000000000000000000000000000000000000000000000000000000008152600401611a8590612b6b565b60405180910390fd5b60006003600083815260200190815260200160002060060160006101000a81548160ff021916908315150217905550600460006003600084815260200190815260200160002060040160009054906101000a900473ffffffffffffffffffffffffffffffffffffffff1673ffffffffffffffffffffffffffffffffffffffff1673ffffffffffffffffffffffffffffffffffffffff168152602001908152602001600020600082815260200190815260200160002060009054906101000a900460ff1615611bfa576000600460006003600085815260200190815260200160002060040160009054906101000a900473ffffffffffffffffffffffffffffffffffffffff1673ffffffffffffffffffffffffffffffffffffffff1673ffffffffffffffffffffffffffffffffffffffff168152602001908152602001600020600083815260200190815260200160002060006101000a81548160ff021916908315150217905550611d34565b600560006003600084815260200190815260200160002060040160009054906101000a900473ffffffffffffffffffffffffffffffffffffffff1673ffffffffffffffffffffffffffffffffffffffff1673ffffffffffffffffffffffffffffffffffffffff168152602001908152602001600020600082815260200190815260200160002060009054906101000a900460ff1615611d33576000600560006003600085815260200190815260200160002060040160009054906101000a900473ffffffffffffffffffffffffffffffffffffffff1673ffffffffffffffffffffffffffffffffffffffff1673ffffffffffffffffffffffffffffffffffffffff168152602001908152602001600020600083815260200190815260200160002060006101000a81548160ff0219169083151502179055505b5b6001600560003373ffffffffffffffffffffffffffffffffffffffff1673ffffffffffffffffffffffffffffffffffffffff168152602001908152602001600020600083815260200190815260200160002060006101000a81548160ff0219169083151502179055506003600082815260200190815260200160002060040160009054906101000a900473ffffffffffffffffffffffffffffffffffffffff1673ffffffffffffffffffffffffffffffffffffffff166108fc349081150290604051600060405180830381858888f19350505050158015611e19573d6000803e3d6000fd5b50807f3d33dab2887eb74204441fe6858b6ee245b3875af43d57969005ca2ea68639506003600084815260200190815260200160002060040160009054906101000a900473ffffffffffffffffffffffffffffffffffffffff1633604051611e82929190612c2e565b60405180910390a2336003600083815260200190815260200160002060040160006101000a81548173ffffffffffffffffffffffffffffffffffffffff021916908373ffffffffffffffffffffffffffffffffffffffff16021790555050565b6000604051905090565b600080fd5b600080fd5b600073ffffffffffffffffffffffffffffffffffffffff82169050919050565b6000611f2182611ef6565b9050919050565b611f3181611f16565b8114611f3c57600080fd5b50565b600081359050611f4e81611f28565b92915050565b6000819050919050565b611f6781611f54565b8114611f7257600080fd5b50565b600081359050611f8481611f5e565b92915050565b60008060408385031215611fa157611fa0611eec565b5b6000611faf85828601611f3f565b9250506020611fc085828601611f75565b9150509250929050565b60008115159050919050565b611fdf81611fca565b82525050565b6000602082019050611ffa6000830184611fd6565b92915050565b60006020828403121561201657612015611eec565b5b600061202484828501611f75565b91505092915050565b61203681611f54565b82525050565b6000602082019050612051600083018461202d565b92915050565b60006020828403121561206d5761206c611eec565b5b600061207b84828501611f3f565b91505092915050565b600081519050919050565b600082825260208201905092915050565b6000819050602082019050919050565b6120b981611f54565b82525050565b60006120cb83836120b0565b60208301905092915050565b6000602082019050919050565b60006120ef82612084565b6120f9818561208f565b9350612104836120a0565b8060005b8381101561213557815161211c88826120bf565b9750612127836120d7565b925050600181019050612108565b5085935050505092915050565b6000602082019050818103600083015261215c81846120e4565b905092915050565b61216d81611f16565b82525050565b60006020820190506121886000830184612164565b92915050565b600080fd5b600080fd5b6000601f19601f8301169050919050565b7f4e487b7100000000000000000000000000000000000000000000000000000000600052604160045260246000fd5b6121e182612198565b810181811067ffffffffffffffff82111715612200576121ff6121a9565b5b80604052505050565b6000612213611ee2565b905061221f82826121d8565b919050565b600067ffffffffffffffff82111561223f5761223e6121a9565b5b61224882612198565b9050602081019050919050565b82818337600083830152505050565b600061227761227284612224565b612209565b90508281526020810184848401111561229357612292612193565b5b61229e848285612255565b509392505050565b600082601f8301126122bb576122ba61218e565b5b81356122cb848260208601612264565b91505092915050565b600080600080608085870312156122ee576122ed611eec565b5b600085013567ffffffffffffffff81111561230c5761230b611ef1565b5b612318878288016122a6565b945050602085013567ffffffffffffffff81111561233957612338611ef1565b5b612345878288016122a6565b935050604085013567ffffffffffffffff81111561236657612365611ef1565b5b612372878288016122a6565b925050606061238387828801611f75565b91505092959194509250565b600081519050919050565b600082825260208201905092915050565b60005b838110156123c95780820151818401526020810190506123ae565b60008484015250505050565b60006123e08261238f565b6123ea818561239a565b93506123fa8185602086016123ab565b61240381612198565b840191505092915050565b600060e082019050612423600083018a61202d565b818103602083015261243581896123d5565b9050818103604083015261244981886123d5565b9050818103606083015261245d81876123d5565b905061246c6080830186612164565b61247960a083018561202d565b61248660c0830184611fd6565b98975050505050505050565b600060c08201905081810360008301526124ac81896123d5565b905081810360208301526124c081886123d5565b905081810360408301526124d481876123d5565b90506124e36060830186612164565b6124f0608083018561202d565b6124fd60a0830184611fd6565b979650505050505050565b7f4e487b7100000000000000000000000000000000000000000000000000000000600052600160045260246000fd5b7f4e487b7100000000000000000000000000000000000000000000000000000000600052601160045260246000fd5b600061257182611f54565b915061257c83611f54565b925082820190508082111561259457612593612537565b5b92915050565b60006125a582611f54565b91507fffffffffffffffffffffffffffffffffffffffffffffffffffffffffffffffff82036125d7576125d6612537565b5b600182019050919050565b7f4e487b7100000000000000000000000000000000000000000000000000000000600052603260045260246000fd5b600061261c82611f54565b915061262783611f54565b925082820390508181111561263f5761263e612537565b5b92915050565b7f4e487b7100000000000000000000000000000000000000000000000000000000600052602260045260246000fd5b6000600282049050600182168061268c57607f821691505b60208210810361269f5761269e612645565b5b50919050565b60008190508160005260206000209050919050565b60006020601f8301049050919050565b600082821b905092915050565b6000600883026127077fffffffffffffffffffffffffffffffffffffffffffffffffffffffffffffffff826126ca565b61271186836126ca565b95508019841693508086168417925050509392505050565b6000819050919050565b600061274e61274961274484611f54565b612729565b611f54565b9050919050565b6000819050919050565b61276883612733565b61277c61277482612755565b8484546126d7565b825550505050565b600090565b612791612784565b61279c81848461275f565b505050565b5b818110156127c0576127b5600082612789565b6001810190506127a2565b5050565b601f821115612805576127d6816126a5565b6127df846126ba565b810160208510156127ee578190505b6128026127fa856126ba565b8301826127a1565b50505b505050565b600082821c905092915050565b60006128286000198460080261280a565b1980831691505092915050565b60006128418383612817565b9150826002028217905092915050565b61285a8261238f565b67ffffffffffffffff811115612873576128726121a9565b5b61287d8254612674565b6128888282856127c4565b600060209050601f8311600181146128bb57600084156128a9578287015190505b6128b38582612835565b86555061291b565b601f1984166128c9866126a5565b60005b828110156128f1578489015182556001820191506020850194506020810190506128cc565b8683101561290e578489015161290a601f891682612817565b8355505b6001600288020188555050505b505050505050565b7f596f7520646f6e277420686176652074686520726967687420746f2074616b6560008201527f2074686973206974656d206f66662073616c652e000000000000000000000000602082015250565b600061297f60348361239a565b915061298a82612923565b604082019050919050565b600060208201905081810360008301526129ae81612972565b9050919050565b7f54686973206974656d206973206e6f74206f6e2073616c652e00000000000000600082015250565b60006129eb60198361239a565b91506129f6826129b5565b602082019050919050565b60006020820190508181036000830152612a1a816129de565b9050919050565b7f596f7520646f6e277420686176652074686520726967687420746f207075742060008201527f74686973206974656d206f6e2073616c652e0000000000000000000000000000602082015250565b6000612a7d60328361239a565b9150612a8882612a21565b604082019050919050565b60006020820190508181036000830152612aac81612a70565b9050919050565b7f54686973206974656d20697320616c7265616479206f6e2073616c652e000000600082015250565b6000612ae9601d8361239a565b9150612af482612ab3565b602082019050919050565b60006020820190508181036000830152612b1881612adc565b9050919050565b7f496e73756666696369656e74207061796d656e7420616d6f756e742c00000000600082015250565b6000612b55601c8361239a565b9150612b6082612b1f565b602082019050919050565b60006020820190508181036000830152612b8481612b48565b9050919050565b6000606082019050612ba0600083018661202d565b612bad6020830185612164565b612bba6040830184612164565b949350505050565b7f4974656d20772f207468697320696420646f6573206e6f742065786973742e00600082015250565b6000612bf8601f8361239a565b9150612c0382612bc2565b602082019050919050565b60006020820190508181036000830152612c2781612beb565b9050919050565b6000604082019050612c436000830185612164565b612c506020830184612164565b939250505056fea26469706673582212203f5f4fa184857e308bf242c60c183c795abb80b70a37643aa09745242b60c0c164736f6c63430008130033",
  "immutableReferences": {},
  "source": "// SPDX-License-Identifier: MIT\r\npragma solidity ^0.8.11;\r\n\r\ncontract MCPropertyMarketplace {\r\n    address public owner;\r\n    uint public nextItemId = 1;\r\n    uint public toyNumber = 0;\r\n\r\n    struct Item {\r\n        uint id;\r\n        string name;\r\n        string itemType;\r\n        string description;\r\n        address seller;\r\n        uint256 price;\r\n        bool isOnSale;\r\n    }\r\n\r\n    // arrays to store items\r\n    mapping (uint => Item) public items;\r\n    mapping (address => mapping (uint => bool)) public sellerItems;\r\n    mapping (address => mapping (uint => bool)) public buyerItems;\r\n\r\n    // events for app to monitor\r\n    event ItemAdded(uint indexed id, string name, string itemType, string description, address seller, uint256 price, bool isOnSale);\r\n    event ItemRemoved(uint indexed id, address seller);\r\n    \r\n    event ItemPutOnSale(uint indexed id, address seller);\r\n    event ItemTakenOffSale(uint indexed id, address seller);\r\n    event ItemPurchased(uint indexed id, address seller, address buyer);\r\n\r\n    constructor() {\r\n        owner = msg.sender;\r\n    }\r\n    // toy events for testing\r\n    event toyAmountAdded(uint toyNum);\r\n    event paid(uint value, address receiver, address sender);\r\n    // toy function for testing connectin w/ contract\r\n    function addToyAmount(uint amount) public returns (uint) {\r\n        assert(amount >= 0);\r\n        toyNumber += amount;\r\n        emit toyAmountAdded(toyNumber);\r\n        return toyNumber;\r\n    }\r\n    function getSender() public view returns (address) {\r\n        return msg.sender;\r\n    }\r\n    function getOwner() public view returns (address) {\r\n        return owner;\r\n    }\r\n    function getNextItemId() public view returns (uint) {\r\n        return nextItemId;\r\n    }\r\n    function payToOwner() public payable {\r\n        require(msg.value >= 0, \"Insufficient payment amount,\");\r\n\r\n        payable(owner).transfer(msg.value);\r\n        emit paid(msg.value, owner, msg.sender);\r\n    }\r\n\r\n    // basic functions of the marketplace\r\n    function addItem(string memory _name, string memory _itemType, string memory _description, uint256 _price) public returns (uint) {\r\n        assert(_price >= 0);  // price cannot be negative\r\n        \r\n        items[nextItemId] = Item(nextItemId, _name, _itemType, _description, msg.sender, _price, false);\r\n        sellerItems[msg.sender][nextItemId] = true;\r\n        nextItemId++;\r\n        emit ItemAdded(nextItemId - 1, _name, _itemType, _description, msg.sender, _price, false);\r\n        return nextItemId;\r\n    }\r\n\r\n    function putItemOnSale(uint _itemId) public {\r\n        require(sellerItems[msg.sender][_itemId] || buyerItems[msg.sender][_itemId], \"You don't have the right to put this item on sale.\");\r\n        require(!items[_itemId].isOnSale, \"This item is already on sale.\");\r\n\r\n        items[_itemId].isOnSale = true;\r\n        emit ItemPutOnSale(_itemId, msg.sender);\r\n    }\r\n\r\n    function takeItemOffSale(uint _itemId) public {\r\n        require(sellerItems[msg.sender][_itemId] || buyerItems[msg.sender][_itemId], \"You don't have the right to take this item off sale.\");\r\n        require(items[_itemId].isOnSale, \"This item is not on sale.\");\r\n\r\n        items[_itemId].isOnSale = false;\r\n        emit ItemTakenOffSale(_itemId, msg.sender);\r\n    }\r\n\r\n    function buyItem(uint _itemId) public payable {\r\n        require(items[_itemId].isOnSale, \"This item is not on sale.\");\r\n        require(msg.value >= items[_itemId].price, \"Insufficient payment amount,\");\r\n\r\n        items[_itemId].isOnSale = false;\r\n        if (sellerItems[items[_itemId].seller][_itemId]) {\r\n            sellerItems[items[_itemId].seller][_itemId] = false;\r\n        } else if (buyerItems[items[_itemId].seller][_itemId]) {\r\n            buyerItems[items[_itemId].seller][_itemId] = false;\r\n        }\r\n        buyerItems[msg.sender][_itemId] = true;\r\n        payable(items[_itemId].seller).transfer(msg.value);\r\n        emit ItemPurchased(_itemId, items[_itemId].seller, msg.sender);\r\n        items[_itemId].seller = msg.sender;\r\n    }\r\n\r\n    // for displaying all on sale items / owned items\r\n    function getItemById(uint256 itemId) public view returns (string memory name, string memory itemType, string memory description, address seller, uint256 price, bool isOnSale) {\r\n        require(itemId < nextItemId, \"Item w/ this id does not exist.\");\r\n\r\n        Item storage item = items[itemId];\r\n        return (\r\n            item.name,\r\n            item.itemType,\r\n            item.description,\r\n            item.seller,\r\n            item.price,\r\n            item.isOnSale\r\n        );\r\n    }\r\n\r\n    function getAllOnSaleItems() public view returns (uint[] memory) {\r\n        uint[] memory itemIds = new uint[](nextItemId - 1);\r\n        uint itemCount = 0;\r\n        for (uint i = 1; i < nextItemId; i++) {\r\n            if (items[i].isOnSale) {\r\n                itemIds[itemCount] = items[i].id;\r\n                itemCount++;\r\n            }\r\n        }\r\n        uint[] memory result = new uint[](itemCount);\r\n        for (uint i = 0; i < itemCount; i++) {\r\n            result[i] = itemIds[i];\r\n        }\r\n        return result;\r\n    }\r\n\r\n        function getSellerItems(address _seller) public view returns (uint[] memory) {\r\n        uint itemCount = 0;\r\n        for (uint i = 1; i < nextItemId; i++) {\r\n            if (items[i].seller == _seller) {\r\n                itemCount++;\r\n            }\r\n        }\r\n        uint[] memory itemIds = new uint[](itemCount);\r\n        itemCount = 0;\r\n        for (uint i = 1; i < nextItemId; i++) {\r\n            if (items[i].seller == _seller) {\r\n                itemIds[itemCount] = items[i].id;\r\n                itemCount++;\r\n            }\r\n        }\r\n        return itemIds;\r\n    }\r\n\r\n    function getBuyerItems(address _buyer) public view returns (uint[] memory) {\r\n        uint itemCount = 0;\r\n        for (uint i = 1; i < nextItemId; i++) {\r\n            if (buyerItems[_buyer][i]) {\r\n                itemCount++;\r\n            }\r\n        }\r\n        uint[] memory itemIds = new uint[](itemCount);\r\n        itemCount = 0;\r\n        for (uint i = 1; i < nextItemId; i++) {\r\n            if (buyerItems[_buyer][i]) {\r\n                itemIds[itemCount] = items[i].id;\r\n                itemCount++;\r\n            }\r\n        }\r\n        return itemIds;\r\n    }\r\n\r\n    function getInventory(address _owner) public view returns (uint[] memory) {\r\n        uint unsoldItemCount = 0;\r\n        uint boughtItemCount = 0;\r\n        uint itemCount = 0;\r\n        for (uint i = 1; i < nextItemId; i++) {\r\n            if (sellerItems[_owner][i]) {\r\n                unsoldItemCount++;\r\n                itemCount++;\r\n            }\r\n        }\r\n        for (uint i = 1; i < nextItemId; i++) {\r\n            if (buyerItems[_owner][i]) {\r\n                boughtItemCount++;\r\n                itemCount++;\r\n            }\r\n        }\r\n        uint[] memory itemIds = new uint[](itemCount);\r\n        itemCount = 0;\r\n        for (uint i = 1; i < nextItemId; i++) {\r\n            if (sellerItems[_owner][i]) {\r\n                itemIds[itemCount] = items[i].id;\r\n                itemCount++;\r\n            }\r\n        }\r\n        for (uint i = 1; i < nextItemId; i++) {\r\n            if (buyerItems[_owner][i]) {\r\n                itemIds[itemCount] = items[i].id;\r\n                itemCount++;\r\n            }\r\n        }\r\n        return itemIds;\r\n    }\r\n}",
  "sourcePath": "Z:\\PSU\\CMPSC 297\\Final Project\\final-project-mc-property-marketplace\\mc-property-marketplace\\contracts\\MCPropertyMarketplace.sol",
  "compiler": {
    "name": "solc",
    "version": "0.8.19+commit.7dd6d404.Emscripten.clang"
  },
  "schemaVersion": "3.4.13",
  "updatedAt": "2023-05-01T00:21:25.392Z",
  "networkType": "ethereum",
  "devdoc": {
    "kind": "dev",
    "methods": {},
    "version": 1
  },
  "userdoc": {
    "kind": "user",
    "methods": {},
    "version": 1
  }
}